:020000040800F2
:1000000000800020D1850008218600082186000894
:1000100021860008218600082186000800000000D3
:100020000000000000000000000000002186000821
:100030002186000800000000218600086F6C00087F
:1000400021860008218600082186000821860008F4
:100050002186000821860008616D0008676D000890
:100060006D6D0008736D0008796D00082186000829
:1000700021860008218600082186000821860008C4
:10008000218600080000000021860008717E00081B
:10009000657E000821860008218600087F6D000823
:1000A00065610008B160000879610008D56000084A
:1000B000E9600008FD600008116100082186000861
:1000C0002186000821860008218600082186000874
:1000D00021860008A9750008C1750008DD750008B3
:1000E000A76D000821860008757E0008218600089B
:1000F0004D610008218600086161000800000000D1
:100100000000000021860008000000002186000891
:10011000F975000800000000256100083961000839
:100120002186000821860008218600082186000813
:100130002186000800000000000000002186000861
:100140002186000821860008000000000000000051
:10015000000000000000000000000000000000009F
:1001600000000000000000000000000021860008E0
:1001700021860008000000000000000000000000D0
:1001800000000000218600080000000000000000C0
:10019000000000000000000000000000000000005F
:1001A0000000000000000000218600081176000811
:1001B0002186000821860008218600080000000032
:1001C0000000000021860008000000000000000080
:0801D0002186000821860008C9
:1001D80010B5054C237833B9044B13B10448AFF379
:1001E80000800123237010BDCC0000200000000017
:1001F800A88C000808B5034B1BB103490348AFF3AB
:10020800008008BD00000000D0000020A88C000875
:1002180008B501F065F900F067F900F00FFF01F08B
:100228005DF802F02DFC01F091FB02F0D9F8BDE871
:10023800084001F0DDB9000013B5164C02F020F9B2
:1002480001F0D2FC02F076FC02F0CCFCB0B101A8BF
:1002580001F016F89DF806300BB102F045FD0DF1DE
:100268000201684601F0A8FABDF90230BDF9002084
:100278009DF905109DF8040002F0E4FC02F010FD61
:1002880008F06EFA2368C31A132BD7D9206001F03F
:1002980063F8D3E7E800002010B58522002125483F
:1002A80008F030FB244925481F2208F033FB214B76
:1002B80023491C46581C1F2208F02CFB21490F22F9
:1002C80004F1210008F026FB1F490F2204F1310038
:1002D80008F020FB1D4BC4F841304FF00133C4F83F
:1002E80045301B4BC4F849301A4BC4F84D30A4F1C3
:1002F8001F01032384F85A30012384F85C3081F805
:100308007F30042381F880304FF6FF73A1F88630E0
:1003180081F8883040F2FF1340F20112A1F88A30C8
:10032800642381F88C30A4F85D200B4BC1F89C3015
:1003380010BD00BF0B050020C38C0008EC04002092
:10034800D18C0008D98C0008E48C00080912BAC0C6
:1003580001012003E80302140400010010B5084C51
:1003680001444FF0FF32884201D1D04310BD10F84C
:10037800013B5340DBB254F8233083EA1222F2E700
:10038800EC00002008B5FFF787FF002008BD00003B
:100398002DE9F0433E4D3F4E87B00024A02128466A
:1003A800C5F8A040FFF7DAFFC5F8A00002F00AFF81
:1003B800B36943F04043B3614CF2FA3701233F225B
:1003C8003761CDE9033202940593019472B601A90D
:1003D80002A802F0E3FF044662B602F005FF002C13
:1003E80053D102F0EFFEB36943F04043B361376184
:1003F80072B6FF264FF0FF322F1913460020C4F1C2
:10040800A40C26E04FEAC00EAEF12001CEF1200880
:1004180026FA08F806FA01F141EA080106FA0EF888
:1004280022EA080817F8012B23EA0101CEF1200976
:10043800AEF1200302FA03F322FA09F9013043EA84
:10044800090302FA0EF2082842EA080243EA010305
:1004580001D06045D6D104F1006101F5FC310020DE
:10046800083402F0F5FEA82C04D00028C2D04FF0C2
:10047800FF3403E0003818BF0120444262B602F09E
:10048800B3FE204607B0BDE8F0834FF0FF34F8E72D
:10049800EC0400200020024070B5104D104BD5F838
:1004A8009C209A42AAB003D04FF0FF302AB070BD0A
:1004B800A422294601A8D5F8A060002408F080FAF3
:1004C800A02101A82994FFF749FF8642ECD10548ED
:1004D800A422294608F074FA2046E7E700F8010844
:1004E80004000100EC04002038B50C4C0C4D00222F
:1004F8001346082143F300002840013980EA5303DA
:10050800F8D10132B2F5807F44F8043BF0D1FFF70F
:10051800C3FEBDE83840FFF7BFBF00BFEC000020B6
:100528002083B8ED38B514460D46002900F06F82D7
:100538003C2A00F26C820138742800F26882DFE8F5
:1005480010F07500840090009C0066026602660246
:100558006602660266026602660266026602660253
:10056800A800B300BE00C900D400DF00660266021E
:100578006602660266026602660266026602660233
:10058800EA00FA001601220130013B014601660229
:100598006602660266026602660266026602660213
:1005A80051015C01670172017D01880166026602E2
:1005B80066026602660266026602660266026602F3
:1005C80093019F01AA01660266026602660266023C
:1005D80066026602660266026602660266026602D3
:1005E800B501C001CB01DF01EA01F4016602660230
:1005F80066026602660266026602660266026602B3
:10060800FE010B0218021F02280266026602660239
:100618006602660266026602660266026602660292
:100628002F02380241024A0251025D021F2A00F2DB
:10063800EE8120220021AE4808F064F9AC48224639
:10064800294608F0BDF9002038BD1F2A00F2DF81D5
:1006580020220021A74808F055F9A6482246294635
:10066800EFE70F2A00F2D38110220021A24808F0F8
:1006780049F9A14822462946E3E70F2A00F2C78133
:10068800102200219D4808F03DF99C482246294641
:10069800D7E7012A40F0BB810B78012B00F2B78124
:1006A800934A82F86430CEE7012A40F0B0810B7893
:1006B800012B00F2AC818E4A82F86530C3E7012A2B
:1006C80040F0A5810B78012B00F2A181884A82F8BD
:1006D8006630B8E7012A40F09A810B78012B00F2C6
:1006E8009681834A82F86730ADE7012A40F08F810E
:1006F8000B78012B00F28B817D4A82F86830A2E7E3
:10070800012A40F084810B78012B00F28081784A1D
:1007180082F8693097E7022A40F079810A88A2F1C5
:1007280064039BB247F69C418B4200F27081704B88
:10073800A3F86A2087E7022A40F069810B887D2B9D
:1007480011D0FA2B0FD0B3F5FA7F0CD0B3F57A7F1E
:1007580009D0B3F5FA6F06D0B3F57A6F03D0B3F5C5
:10076800FA5F40F05481624AA2F86C306BE7012AC4
:1007780040F04D810B785A1E022A00F248815C4AEB
:1007880082F86E305FE7012A40F041810A78A2F1D1
:100798000A03DBB2BE2B00F23A81554B83F86F2077
:1007A80051E7012A40F033810B78012B00F22F81A9
:1007B8004F4A82F8703046E7012A40F028810B78CA
:1007C800642B00F224814A4A82F871303BE7012AFF
:1007D80040F01D810B78032B00F21981444A82F8FE
:1007E800723030E7012A40F012810B78142B00F2A6
:1007F8000E813F4A82F8733025E7012A40F00781CD
:100808000B78142B00F20381394A82F874301AE706
:10081800012A40F0FC800B78142B00F2F880344A4F
:1008280082F875300FE7012A40F0F1800B78142B1D
:1008380000F2ED802E4A82F8763004E7012A40F073
:10084800E6800B78142B00F2E280294A82F8773090
:10085800F9E6012A40F0DB800B78022B00F2D78002
:10086800234A82F87830EEE6012A40F0D0800B78EF
:100878005A1E072A00F2CB801D4A82F87930E2E638
:10088800012A40F0C4800B78012B00F2C080184A7E
:1008980082F87A30D7E6012A40F0B9800B78012B2C
:1008A80000F2B580124A82F87B30CCE6012A40F08B
:1008B800AE800B78012B00F2AA800D4A82F87C30BA
:1008C800C1E6012A40F0A3800B78012B00F29F803B
:1008D800074A82F87D30B6E6012A40F098800B7806
:1008E800012B00F29480024A82F87E30ABE600BF0A
:1008F800EC0400200C0500202C0500203C050020FD
:10090800012A40F084800B785A1E172A7FD8414A62
:1009180082F87F3097E6012A79D10B785A1E032A8C
:1009280075D83C4A82F880308DE6022A6FD10B8850
:10093800B3F5FA7F6BD8374AA2F8823083E6032AE8
:1009480065D1344B0A7883F884204A7883F8852067
:100958008A7883F8862076E6032A58D12D4B0A78C0
:1009680083F887204A7883F888208A7883F8892052
:1009780069E6012A4BD1274B0A7883F88A2062E678
:10098800012A44D10B78042B41D8224A82F88B30B3
:1009980059E6012A3BD11F4B0A7883F88C2052E68E
:1009A800012A34D10B78042B31D81A4A82F88D30B9
:1009B80049E6012A2BD10B78032B28D8154A82F84F
:1009C8008E3040E6012A22D10B78072B1FD8114A16
:1009D80082F88F3037E6012A19D10E4B0A7883F84E
:1009E800902030E6082A12D80B4B00221A605A6071
:1009F8001846224607F0E4FF047224E6012A06D1CD
:100A08000B780C2B03D8034A82F89A301BE64FF078
:100A1800FF3019E6EC0400207D05002070B515466E
:100A28000C46002900F06381002A00F0608101383B
:100A3800742800F25C81DFE810F0750082008A00FB
:100A480092005A015A015A015A015A015A015A018F
:100A58005A015A015A015A019A00A000A400A8009C
:100A6800AC00B0005A015A015A015A015A015A0100
:100A78005A015A015A015A01B400BF00C600CA00FF
:100A8800CE00D200D6005A015A015A015A015A0121
:100A98005A015A015A015A01DA00DE00E200E60062
:100AA800EA00EE005A015A015A015A015A015A0144
:100AB8005A015A015A015A01F200F600FA005A0185
:100AC8005A015A015A015A015A015A015A015A0146
:100AD8005A015A015A015A01FE00020106010A018F
:100AE8000E0112015A015A015A015A015A015A01BA
:100AF8005A015A015A015A01190125012F013301DE
:100B080037015A015A015A015A015A015A015A0128
:100B18005A015A015A015A013B013F014301470159
:100B28004B0156012021734807F007FF714906461B
:100B380082B2204607F044FF2E80002070BD20219D
:100B48006D4807F0FAFE6C49064682B2F1E71021BB
:100B58006A4807F0F2FE6949064682B2E9E71021C1
:100B6800674807F0EAFE6649064682B2E1E7614B4C
:100B780093F86430237001231CE05E4B93F86530D2
:100B8800F8E75C4B93F86630F4E75A4B93F8673014
:100B9800F0E7584B93F86830ECE7564B93F8693018
:100BA800E8E7544BB3F86A200A70B3F86A301B0AB6
:100BB800637002232B80C0E74E4BB3F86C200A7099
:100BC800B3F86C30F3E74B4B93F86E30D2E7494BF0
:100BD80093F86F30CEE7474B93F87030CAE7454B30
:100BE80093F87130C6E7434B93F87230C2E7414B34
:100BF80093F87330BEE73F4B93F87430BAE73D4B38
:100C080093F87530B6E73B4B93F87630B2E7394B3B
:100C180093F87730AEE7374B93F87830AAE7354B3F
:100C280093F87930A6E7334B93F87A30A2E7314B43
:100C380093F87B309EE72F4B93F87C309AE72D4B47
:100C480093F87D3096E72B4B93F87E3092E7294B4B
:100C580093F87F308EE7274B93F880308AE7254B4F
:100C6800B3F882200A70B3F88230A0E7214B93F8DA
:100C780084200A7093F885204A7093F88630A37010
:100C8800032397E71B4B93F887200A7093F8882073
:100C98004A7093F88930F2E7164B93F88A3069E77F
:100CA800144B93F88B3065E7124B93F88C3061E75F
:100CB800104B93F88D305DE70E4B93F88E3059E763
:100CC8000C4B93F88F3055E70A4B93F8903051E767
:100CD800084E204696F8992006F1910107F070FE1B
:100CE80096F8993066E7034B93F89A3042E74FF04D
:100CF800FF3023E7EC0400200C0500202C05002021
:100D08003C050020FFF7F0BB2DE9F043A1B01C46DD
:100D1800289E0D46002967D0002B65D0002E63D091
:100D2800032A61D9B1F8029091F800804F78B9F19F
:100D38003B0F59D8033A4A4556DD3B22002102A809
:100D480007F0E0FD3B22002111A807F0DBFD00239E
:100D58004A46291D02A8ADF8063007F031FE08F111
:100D6800FF33042B3CD8DFE803F00C2C3B3803009E
:100D780045F2AA53ADF844300223ADF806300023FB
:100D88000BE00DF1060211A93846FFF747FE0028CF
:100D9800F5D00023ADF806300223BDF80650A57043
:100DA8002A0AE27084F800802A466770237111A924
:100DB800601D053507F004FE3580002021B0BDE830
:100DC800F0834A4602A93846FFF7ACFB50B9FFF753
:100DD800DFFA0028D3D00623DFE7FFF7D3FAF6E7D8
:100DE8000123DAE70523D8E74FF0FF30E6E70000F4
:100DF800034A00231360034A1360034A13607047D1
:100E08009C05002098050020940500202DE9F84F46
:100E1800584C594D94F867202B78DFF8808100F002
:100E2800010AC0F34006C0F38007C0F3C009002AD6
:100E380039D094F87C20B2B3B9F1000F3AD12A78AE
:100E4800DFF85CC14D4DDFF85CE1E2B1DFB1BAF12A
:100E5800000F06D09CF800301BB9DFF824B18BF8DE
:100E6800003036B12B7823B9454B4FF0010B83F88E
:100E780000B09EF8003033B9BAF1000F26D0DFF881
:100E880000B18BF8003088F800908EF800708CF86C
:100E980000A02E701AB10B6803BB00F0FB0000F035
:100EA8000F00BDE8F88F002BC9D000232B70FFF787
:100EB8009FFFC4E798F80020002AC0D183F00103FF
:100EC8002B702F4B94F87E201A70F0E7002EDAD0A2
:100ED8002B4B4FF0010B83F800B0D4E794F8802037
:100EE8000AB193FBF2F3274E274D3268134494F866
:100EF8007F203360012A38BF0122934231DA5242FF
:100F080093420EDC4FF0FF322B68204F13442B60C6
:100F18003B6813443B60002333601D4B5A681D4BEC
:100F28001A602B6813B31A4AB4F882405668194AF3
:100F38001268B61A184A4FF47A771268B2FBF7F2B9
:100F48006243964212D3002BD4BF4FF0FF320122E6
:100F58009B1A2B600A4B0A601B7823B940F00100EA
:100F68009DE70122D0E740F0020098E700230B60DC
:100F780095E700BFEC040020A5050020A00500208F
:100F8800A40500209C050020980500209405002059
:100F9800001000E09005002074000020A305002048
:100FA800A1050020A2050020014B1878704700BF5A
:100FB800A5050020F0B5EFF3108772B60F4E337811
:100FC8001F2B18D80E4C0F4D237803EB4303E8541E
:100FD800237803EB43032B445970237803EB430333
:100FE8001D442378AA70013303F01F03237033785C
:100FF8000133DBB2337007B962B6F0BDC605002015
:10100800C8050020C90500200B4B1B69C3F3C000AD
:1010180080F00100C0B2DA0658BF40F0020099061D
:1010280058BF40F004005A0658BF40F008001B069D
:1010380058BF40F01000704700040048134A08B534
:10104800D36C43F00203D364BFF34F8F104A1149A6
:1010580013680B401360D3680B4043F4AA2343F48E
:10106800A863D360136913690B4AC3F301231360A0
:10107800FFF7CAFF094B0A4A187000231370094A80
:101088001370094A1370094A137008BD0010024012
:10109800000400483F00F0FFA8050020C405002018
:1010A800C5050020C6050020C7050020C80500208A
:1010B8002DE9F04F674B684D1C78013485B0E4B2D8
:1010C8001C70FFF7A1FF654B6549D3F80480654B99
:1010D80091F8789083461878634B1A684FF47A73BE
:1010E800B2FBF3F3019300239E4601229A40D6B245
:1010F8000BEA060C00EA0607BC4530D02F685FFAF9
:1011080083FAA8EB07070097BAF1030F49D8DFE87D
:101118000AF0023F424591F873A0019FB9F1010F0F
:101128000AFB07FA40D0B9F1020F40D0009F57459B
:1011380015D3D243D7B202404CEA0200C5F800806A
:10114800BCF1000F36D0042B15BF484F484A3A78F7
:1011580001261ABF32433A7016704FF0010E013360
:10116800052B05F10405C0D1BEF1000F24D1414A79
:10117800414913691269DB09C2F3402203F00203F3
:1011880013430A68032A2AD8DFE802F01E25403CE8
:1011980091F874A0C1E791F875A0BEE791F876A020
:1011A800BBE791F877A0B8E74FEA4A0ABEE74FEAEB
:1011B8005A0ABBE7042B02D12A4B1870D7E72B4EEB
:1011C80032783A403270C8E7012B22D0022B06D180
:1011D8004FF0FF321EE0032B1BD0002BF8D00B6022
:1011E80014F01F040BD1214B214D1878039403A947
:1011F800FFF70CFE2A782146FFF7DCFE2C7005B0BD
:10120800BDE8F08F022B04D0012BE0E70BB1032BD4
:10121800DDE70122194D12480B602B681A4490F83B
:1012280079302A60002B08BF03239A4210DA5B4208
:101238009A42D5DC4FF0FF3190F87A300BB1494231
:1012480049B20A4B00221878FFF7B4FE2A60C7E7B4
:101258000121F1E7A7050020B0050020001000E0FB
:10126800EC040020C405002074000020C5050020FF
:10127800A605002000040048A8050020AC050020B1
:10128800F0B50346EFF3108472B611490A7802F0FC
:10129800FF0012B904B962B6F0BD0E480E4E0278CE
:1012A80002EB4202B518B75C027895F90160AD7897
:1012B800013202F01F0202700A78013AD2B20A70B3
:1012C80004B962B61F705E709D700120E4E700BF2C
:1012D800C6050020C7050020C90500201C4B1A6E52
:1012E80042F400621A66DA6C42F00102DA64BFF373
:1012F8004F8F4FF09043FF211A6822F47C1242F47A
:1013080028121A605A6A6FF30B0242F4CC6242F058
:1013180006025A629A6842F47C129A60DA6822F4E9
:101328007C12DA600B4B00229A62D96246F6680199
:1013380099616821D96140F2111119624FF40C4189
:1013480059645A639A63DA6381221A60704700BF4E
:1013580000100240002C01402DE9F041DFF87C81AB
:1013680098F868302BB95B4A53639363D363BDE83D
:10137800F08198F8673098F8847098F8856098F844
:1013880086505BB198F87C3043B1FFF70DFE28B169
:1013980098F8877098F8886098F8895098F88C3091
:1013A8004D4C0A2B38BF0A23B4FBF3F407F0D8F9E5
:1013B800B0FBF4F303FB140098F88B30022B4FEAD0
:1013C8000020B0FBF4F098F88A402FD0042B32D0DC
:1013D800012B35D17F2888BFC0F1FF0040004300B2
:1013E800C3F54073404343431B0CFA2253431B0A83
:1013F8000533FF2003FB07F103FB06F2B1FBF0F115
:101408006B436143B2FBF0F2B3FBF0F36243634317
:10141800304CB1FBF0F1B2FBF0F2C9B2D2B2B3FB7F
:10142800F0F3DBB26163A263E363A0E7802834BF13
:10143800FF230023DDE7802834BFFF23B423D8E748
:10144800032B44D198F88C301922B3FBF2F3013303
:10145800DBB242F21075B5FBF3F507F081F9FF2313
:10146800C0EB0020B0FBF5F0B0FBF3F3C3EB0323B4
:10147800C01A5428C3B216D8A3EB8303DAB2531E9A
:101488005242DBB2D2B20021FF2063436243B3FB76
:10149800F0F3B2FBF0F26143B1FBF0F10D484363A6
:1014A8008263C16363E7A92809D8553BA3EB83038B
:1014B800DBB25A1E5B42D9B2D2B20023E4E75633FC
:1014C80003EB4303DBB2D943C9B20022DCE7FF23B5
:1014D8008FE700BF002C014060E31600EC040020F9
:1014E80030B5364DAB6D43F08053ADB0AB65AB6DE9
:1014F80003F0805300930020009B02F0A1FD14220A
:1015080000210EA807F0FEF922230D934FF4807EE8
:1015180040230122CDE910E30223CDE9132304215E
:1015280055220DA8CDE91612CDE9183315931A9353
:1015380002F0E6FDD5F898309C07FBD5002403237C
:101548000F22042102A8CDE90223CDE90444069420
:1015580003F018F8402221461CA807F0D3F94FF4ED
:1015680000531BA81B9303F043F9AB6D43F480733E
:10157800AB65AB6D079403F480730193019B0994E9
:101588004FF0005308934BF67F302223CDE90A032E
:10159800202307A80C9303F067FA05F08BFD084A8F
:1015A800D2F8FC3043F08073C2F8FC30054B5C6025
:1015B8001A6842F001021A602DB030BD00100240D6
:1015C80000ED00E0001000E0FFF772BD012A02D133
:1015D800016000207047022A05D0032AF9D0002AAA
:1015E800F7D10260F5E70B680360F2E70368184774
:1015F80030B5B82085B005F043FA144C14490546B7
:1016080004F0C6FD02224FF4FA512846256004F082
:1016180027FD002301930F4B00930F4B0393206882
:101628000E4B0293694604F0FAFD029B1BB103229C
:1016380069466846984720680022032104F0F7FBB2
:10164800206805B0BDE8304004F0CEBB2C06002071
:1016580000100040D1150008F5150008D515000840
:101668000649074B074A1B68B3FBF2F310B54C68F1
:1016780043434A68121B9A42FBD310BD001000E096
:101688007400002040420F000121C42007F030B848
:101698000021C42007F02CB800B53A4A92F86E1021
:1016A80092F86F30012908BF053389B0FF2B28BF96
:1016B800FF238DF81430344B1B88ADF81630B2F880
:1016C8007030ADF8183092F87230012B4DD0DFED44
:1016D8002F7A9FED2F7A022B18BFF0EE477A04ABD2
:1016E8002C49009309782C48CDED077A03AB05AA5D
:1016F80000F0BCFB294ADDED037A92ED006A284B25
:101708002848D3ED006A284936EE276ADDED047AC9
:10171800BDEEC67A76EEA76AF8EEC75AFDEEE67A0F
:1017280036EE656A17EE90CA82ED006AB8EEE76A8F
:1017380017EE102A76EEC66AC3ED006A03681A44EB
:101748000B6802609C44B2F5FE6F6346C1F800C0A6
:101758000EDD4FF4FE620260B3F5FE6F0DDD4FF44F
:10176800FE630B6009B05DF804FBF5EE007AB6E79E
:1017780012F5FE6FF0DA0D4AEDE713F5FE6FF1DAB8
:101788000A4BEEE7EC040020000000203333B33EA0
:101798009A99993E44060020460600203806002003
:1017A80034060020400600203C06002010F8FFFF09
:1017B800002206F0A2BC0000F0B5DFF850C0124FBE
:1017C800DCF800203B6882EAE27683EAE374A4EB63
:1017D800E374A6EBE276A642B8BF26467F2EC7BFC3
:1017E800C2EBC215C3EBC3141C461546C4BF95FB18
:1017F800F6F594FBF6F4521B1B1B0580CCF8002071
:101808003B600C80F0BD00BF3C0600204006002075
:1018180037B5164B0093002540F20313ADF804309A
:101828008DF8065002AB13E906000446104806F08E
:10183800A7FBFFF72DFF21460D48FFF7B9FFA020B2
:10184800FFF70EFF29460A48FFF7B2FF04460120BA
:10185800FFF706FFFFF718FF054806F05DFB1E209F
:10186800FFF7FEFE204603B030BD00BF80841E0097
:10187800680E002037B5154B009340F20313ADF8FE
:10188800043000238DF8063002AB05460C4610489C
:1018980013E9060006F074FBFFF7FAFE45F0800135
:1018A8000B48FFF785FF21460948FFF781FF2320F2
:1018B800FFF7D6FEFFF7E8FE054806F02DFB962059
:1018C80003B0BDE83040FFF7CBBE00BF80841E00E8
:1018D800680E002038B5194DB5F86A40632C28D930
:1018E80042F643739C4226D86423B4FBF3F4611E8A
:1018F800C9B20F20FFF7BEFF95F86E30032B34BF37
:10190800022103216320FFF7B5FF00215020FFF7D4
:10191800B1FF0B4BB5F86A201A800A4B95F86E2078
:101928001A7004EB8404084B04EB8404A4001C80A4
:1019380038BD0124DBE77824D9E700BFEC04002098
:101948003206002030060020000000202DE9F34177
:10195800684F00240121C2203C7006F05FFE01217F
:10196800C22006F0C5FEC82006F0FCFE0121C420F6
:1019780006F054FEFFF788FE642006F0F3FE5E4A88
:101988005E4B91695E4853F82110C166D16952696E
:1019980053F82110016753F822304367214606F0B7
:1019A80095FBC82006F0DEFE03263D78002D40F0AA
:1019B8008780FFF769FE5A213A20FFF75BFF502026
:1019C80006F0D0FE0220FFF723FF0320FFF720FFD9
:1019D8000420FFF71DFF0520FFF71AFF0620FFF779
:1019E80017FF0A2006F0BEFE2846FFF711FF42281F
:1019F80060D129461020FFF73DFF0A2006F0B2FE0D
:101A08001D211320FFF736FF0A2006F0ABFE182130
:101A18001320FFF72FFF0A2006F0A4FE394B00938E
:101A280040F20313ADF804308DF8065002AB13E909
:101A380006003348DFF8F88006F0A2FAFFF728FE20
:101A4800E2212F48FFF7B4FE0F20FFF709FE40F60A
:101A5800FE7418F8011B2A48013CFFF7A9FEA4B23E
:101A68000F20FFF7FDFD002CF3D1FFF70DFE2448F2
:101A780006F052FA1E2006F075FE2A20FFF7C8FE6F
:101A8800042817D1204B1C80204B1C70FFF722FF25
:101A980021461020FFF7EEFE1E2006F063FE02200E
:101AA800FFF7B6FE0A2006F05DFE21465020FFF73C
:101AB800E1FE0125013E16F0FF063D707FF475AF8B
:101AC80000F0B8F9124B01221A70124A0023137061
:101AD800114A1370114A4FF6FF711180104A1360B2
:101AE800104A1360104A00231360104A136002B0B2
:101AF800BDE8F08181060020BCA20008E8A2000829
:101B0800680E002080841E00320600203006002067
:101B18000400002080060020440600200200002067
:101B28003C0600204006002034060020380600202D
:101B3800F68C000830B585B01F4B0293002440F2A4
:101B480003138DF80E40ADF80C3004AB13E9060012
:101B580005461A480094CDF8034006F011FAFFF73D
:101B680097FD50211548FFF723FE2420FFF778FD45
:101B7800234607226946114806F0F6FAFFF784FD66
:101B88000E4806F0C9F99DF80030C3F3C0021B06E1
:101B980044BFBDF80240BDF804306A7144BF6442D6
:101BA8005B429DF806202A7146BF24B21BB2234629
:101BB8002C806B8005B030BD80841E00680E00202C
:101BC80007B56846FFF7B6FF8220FFF749FD68466C
:101BD800FFF7B0FF00F02EF9024B00221A7003B095
:101BE8005DF804FB440600202DE9F843524B1B78AE
:101BF800C3B1524B524F5C6897F86430DFF8789164
:101C0800504D514E83B9514A012389F800300023C1
:101C180013604F4A2B7013604E4A337000231360D1
:101C28004D4A1360BDE8F88300F02EFE0028EAD084
:101C38004A4B99F80010B7F86A201B88DFF83C81F6
:101C4800002957D000219A4289F8001005D1444B49
:101C580097F86E201B789A4201D0FFF73BFEFFF7FA
:101C6800AFFF364B5C683F4B1C604FF6FF73A8F81C
:101C780000303D4BB8F80010B3F848303278C3F361
:101C88000A03994247D0A8F80030384B1C600AB1C3
:101C9800FFF702FD00232B70324B1C6001233370C9
:101CA8002B78072B1CD82F4F3A68A41A002C17DB67
:101CB8005A1C2A702E4A062000FB0320FFF73AFF21
:101CC8002C4B4FF4FA521B68B3FBF2F33A681344F7
:101CD8001A4A3B605268D11A0029C8BF13463B60B4
:101CE8003478002C9ED12B78072B9BD9FFF7D4FC96
:101CF8002C7097E79A4205D1194B97F86E201B78FC
:101D08009A42B6D0FFF7E6FDFFF75AFF0B4B5C6827
:101D1800144B1C60ADE7002AC2D0144B1A68154B4F
:101D2800A21A1B684FF47A71B3FBF1F303EB430378
:101D38009A42B5D90023B2E781060020001000E0DE
:101D4800EC04002044060020800600203C06002009
:101D58004006002034060020380600203206002005
:101D68003006002078060020005C00407C06002039
:101D78004606002074000020040000200200002015
:101D8800F0B585B06C46002230F91260134625463E
:101D98001BB135F9027CBE4246DB04AD05EB4303BB
:101DA800013223F8106CD3B2994204F10204EBD843
:101DB80001F0FE0210326A444B0832F9102C07EE8B
:101DC800902ACA07F8EEE77A0DD405EB430333F9F6
:101DD800123C07EE103AB8EEC77A77EE277AB6EEDD
:101DE800007A67EE877AF0EEE76AB2EE007A76EE6E
:101DF800876A9FED0F0A00EB410130F9023B07EEBD
:101E0800103AB8EEC77A37EE676AB0EEC66AB4EE33
:101E1800666AF1EE10FAC8BFB0EE677A814230EE1A
:101E2800070AEAD105B0F0BD25F80279013BAFE712
:101E380000000000074A00231360074A1360074A9E
:101E48001360074A1360074A1360074B01221A7090
:101E5800704700BF90060020940600208C060020E2
:101E68008406002088060020050000202DE9F043A4
:101E78002DED088B9FEDB2BA9FEDB27A89B01E4660
:101E880083ED00BA5388189F642B38BF642307EE8C
:101E9800903AF8EEE77A9046C7EE87AA87ED00BA3F
:101EA800002900F0308192F800C0A74A08294FF0B5
:101EB8000003147828BF08211D4690F805E0BEF1FC
:101EC800000F27D1B4FA84F490F8049064090CEB5D
:101ED8004404A1451EDBB0F900E08EEAEE74A4EBE1
:101EE800EE74A4B2B4F5617F12D8B0F9029089EA11
:101EF800E974A4EBE974A4B2B4F5617F08D808AC1E
:101F080004EB4504013524F820EC24F8109CEDB2CC
:101F1800012400E0002401335FFA83FE714500F1DB
:101F28000600CAD8147035B91570284609B0BDEC3A
:101F3800088BBDE8F08307EE901A07EE105AF8EE0A
:101F4800677AB8EE477A294687EE878A6846FFF7A8
:101F580017FF294604A860EE088AFFF711FF20EE54
:101F6800088A7A4BDFED7A7A93ED00AA38EECA7ABE
:101F7800B7EE009AA7EE27AA83ED00AA754BD3ED1A
:101F8800009A38EE697AE7EE279AC3ED009A98F836
:101F98000430002B40D0F0EE690AB0EE4A0A06F091
:101FA80067FDF4EEC0AAF1EE10FA35DC98F80530BA
:101FB800DFED696A9FED696A642B28BF642307EE29
:101FC800903AB8EEE77AF7EE087AE7EE267ADFED90
:101FD800646AB0EECAAAF0EEE99A67EEA67AB4EEA1
:101FE800E9AADFED606AF1EE10FAE7EE066AC0F2E0
:101FF8008F8089EE8A6AF4EEC67AF1EE10FA0BDD6C
:1020080086EE277AB0EE496AA7EE476AF0EE497A7B
:10201800E6EEC67A28EE278AF0EE480AB0EE680A9D
:1020280006F026FD504B9FED517AD3ED007A30EE45
:10203800670AE0EE077A37EEEA7AC3ED007AF2EE45
:102048000C7ADAEEA7AAC7EE2A7AF5EEC07AF1EE94
:1020580010FA72D4F4EEC97AF1EE10FAC8BFF0EEB5
:10206800497AB0EE006AF0EE086AE7EEC66A27EE33
:10207800A77ADFED3F7A27EE267AD8ED026AF4EEEA
:10208800E76AF1EE10FA08D4F4EEC96AF1EE10FA34
:10209800D4BFF0EE667AF0EE497A364A364B39EE1E
:1020A800679A0125E9EE077A92ED007A78EE878A39
:1020B80093ED007A38EE078A28EEA77A68EE277A39
:1020C80086ED007AC7ED007A96ED007A78EEC78A39
:1020D80038EE678ADFED297AB0EEE87AB4EE677AEF
:1020E800B0EEC87AF1EE10FAB4EE677A48BFF0EEB7
:1020F8004B8AF1EE10FA48BFB0EE4B8AC2ED008A67
:1021080083ED008A11E7B0EE4B8AF0EE4B8A28E7A0
:102118008AEE296AF4EEC67AF1EE10FA7FF77CAF00
:1021280086EE277AB0EE496AA7EE476AF0EE497A5A
:10213800E6EEC67A68EEA78A6EE7DFED017A90E7E9
:102148000000000000007A440500002088060020F6
:102158000AD7233D840600208FC2753DF4FDD43B89
:1021680035FA8E3C3333B33E8C0600209A99193EDB
:10217800CDCCCC3D94060020900600200AD7233C05
:10218800F0B500244F1CA3B2934200D3F0BD5D1CF0
:10219800ADB20344AA429BB288BF3E5D0D5D03F118
:1021A800804398BF002603F5C04345EA06251D80F5
:1021B8000234E8E700F1805000F5B850800002884A
:1021C80092B282EA011322F0F002520503F03003C2
:1021D800520D134343F4004343F0800303807047D8
:1021E80000F1805000F5B8508000038823F0F00318
:1021F8005B055B0D43F080030380704770B500F109
:10220800805404F5B854A400268835B226F47E56C6
:1022180026F03F067604760C314385EA02320843FD
:1022280085EA031502F4405205F0300540F40040F9
:1022380040F080002A430243228070BD164B802262
:102248004021002010B5A3F84C20A3F80014A3F8EF
:102258000204A3F804244FF40442A3F806244FF41C
:10226800007102230322FFF7C9FF0124002320463F
:1022780001341A464FF4C061E4B2FFF7BFFF042CE3
:10228800F4D1064A1370064A1370064A1370064BB7
:1022980001221A7010BD00BF005C0040F00600204B
:1022A80099060020980600200800002038B50B4C3D
:1022B8000B4D22882968402A28BF40224020FFF77A
:1022C8005FFF084B5A80238811449A1A296022809C
:1022D8000321BDE838400020FFF76CBFE806002066
:1022E800EC0600200060004008490A8892B282EAA1
:1022F800003322F0F002520503F44053520D134309
:1023080043F4004343F080030B807047005C0040B7
:1023180008B5064B03211970054B00205880FFF7BC
:1023280049FFBDE808400846FFF7DEBFF006002079
:10233800006000400F4B10B5DA880F4C8A422060CD
:102348000E48134628BF0B4603803BB18A4283BF21
:1023580003F03F03B3FA83F35B090023084A1370C1
:10236800084B01221A70FFF7A1FFBDE810400320B7
:10237800FFF7BABFF2060020EC060020E8060020AE
:10238800E6060020F0060020024B012118701846CE
:10239800FFF7D0BF9E06002008B501210020FFF7F7
:1023A80009FF0846FFF7A0FF014B00221A7008BD7D
:1023B800F006002030B50023451C9CB2A14200D88D
:1023C80030BD03F1804202F5C14201341288A4B243
:1023D80092B2A142C25484BF120AEA540233ECE713
:1023E800234B4FF4002210B5C3F88020BFF34F8F62
:1023F800BFF36F8F4FF48012C3F88020BFF34F8F65
:10240800BFF36F8F4FF48062C3F88420BFF34F8F00
:10241800BFF36F8F174B9A6D42F400029A659A6B5F
:1024280042F400029A639A6B22F400029A63BFF3A3
:102438004F8F114C0123A4F840304FF4807300BF34
:10244800013BFCD1A4F84030A4F84430A4F8503043
:10245800A4F85830FFF7F2FE084B4FF6FF7214202D
:102468001A8006F07FF94FF40043A4F8583010BDE5
:1024780000E100E000100240005C0040060000207F
:10248800B14AB2F844302DE9F34799B213F4FE4348
:1024980009D083F47F4383F0FF03A2F844304A0550
:1024A80001D5FFF7CBFEA84D0824B5F8443098B203
:1024B8001B045CD500F00F0000F1805303F5B853FE
:1024C8009B001E88B7B206F0800236B2002840F0A2
:1024D800AE81FAB12B8823F0F0035B055B0D43F462
:1024E80000432B80994B1A78032A0CD198490A7813
:1024F80032B1984A127842F08002A5F84C20087050
:1025080000221A7006E0012A04D1934A118889B37F
:10251800FFF7CCFE002E26DA17F4006700F0508192
:1025280008216846FFF746FF0020FFF759FE022101
:102538000020FFF73FFE894F9DF800009DF80160DD
:10254800BDF80210BDF80420BDF8063038707E7062
:102558007980BA80FB8010F0600712D0202F00F03D
:10256800C580FFF719FF013C14F0FF049DD102B0AC
:10257800BDE8F0877A4A107808B11170C8E70422DC
:10258800BFE70B2EEDD801A353F826F0C5250008A8
:10259800E52500086B250008E52500086B250008DF
:1025A800D7250008EB2500086B25000899260008A8
:1025B8009F260008ED260008E5250008694A002343
:1025C8001370537002211046FFF7B4FECBE7614B3E
:1025D80001F07F0119705E4B01221A70FFF798FE17
:1025E800C1E700F01F0001284FEA112312D1022A87
:1025F800B7D8222B06D15C4B33F812105B4B53F83B
:102608002200E1E7212BACD1594B5A489B5C0921A8
:102618001844D9E7022B06D0032B07D0012BA0D1F1
:1026280055481221D0E753485421CDE711F0FF0156
:1026380008D14C4A04215370092311709370D1704A
:102648004848C1E703298CD80C2301394B4A594320
:1026580053185658327892B11979304606F06DF908
:10266800404B421C52001A7003225A7030441A46DA
:102678000021864206D111780029E1D171E79E68D0
:102688002021EAE716F8017B9F70D9700233F0E742
:102698003B4B187827E001293FF663AFDFF8E0806D
:1026A800384FDFF8E4A0C9B288F8001001264FF0CF
:1026B800000998F80020F0B202F0FF0382B13AF85E
:1026C80016303B800022A7F8029002234FF4C06125
:1026D8000136FFF793FD042E07F10807E9D17DE7DE
:1026E8001A46F3E70020FFF74FFE3CE7013E080AD1
:1026F800C9B20A2E3FF635AF01A757F826F000BF3A
:1027080035270008ED260008BF2700086B250008BC
:102718006B2500086B2500086B2500086B25000851
:1027280095270008E5250008C3270008002A7FF43C
:1027380018AF03287FF415AF482B0A4A28BF48234F
:1027480000F0E6F9014697E7005C0040F00600203B
:10275800990600209A060020E8060020F2060020CC
:10276800E60600209E0600207E9D0008849D000845
:102778001E9E0008189D00086C9D0008F49C000827
:102788009806002008600040229E0008022A3FF6B2
:10279800E8AE023801283FF6E4AE013B472B3FF68E
:1027A800E0AE2A4B02221A70294B00221A8003201D
:1027B800FFF79AFDD7E6274B6BE7264B19700DE715
:1027C800224A1378022B04D03846FFF709FD177008
:1027D800EDE7DFF87C80204BB8F80060D9881F4807
:1027E800C6F148039BB21FFA81F9C1F30901994266
:1027F80028BF19463044FFF7DDFD3144184E89B231
:102808003846A8F80010FFF7EBFCF3888B4202D992
:1028180019F4707FCBD1B388002B7FF4DFAE7088BA
:102828000E4A0B46000AB17800F056F9D6E63AB1DE
:102838001A8822F0F0025205520D42F400421A8022
:10284800002EBFF690AEFFF7CBFC8CE6F00600201A
:102858009C06002008000020006000409E06002022
:10286800F20600200649074BB3F848300A88C3F33C
:102878000A0392B29A421ABF01200B8000207047C7
:1028880006000020005C0040014B1878704700BF2C
:102898009806002000F1805000F5B85080000088AC
:1028A80000F03000303818BF0120704738B50446B2
:1028B800FFF7F0FF054670B1084B402A33F81400C3
:1028C80028BF4022FFF75CFCE100054B20465A5226
:1028D8000321FFF76FFC284638BD00BF229E000881
:1028E800026000402DE9F047DFF8408098F800507A
:1028F8003F2D0F4618D8DFF83890DFF838A099F840
:1029080000400A266643731C0A46013401460AEB56
:10291800030006F055F804F03F0401350AF8067084
:1029280089F8004088F80050BDE8F087FD060020CF
:10293800FF0600200007002010B586B00023012400
:10294800CDF802308DF80100CDF805308DF8004043
:102958000DF10200DCB2A2420FD800230122684622
:102968000921CDE903238DF81430FFF7BBFF0921B6
:1029780003A8FFF7B7FF06B010BD062BEDD0CC5C5F
:1029880000F8014F0133E5E7A0F161020023192A9D
:1029980010B50B7002D85D38C0B210BDA0F141026D
:1029A800192A03D801230B703D38F5E7A0F131024D
:1029B800082A01D81338EFE730282DD00A282DD05F
:1029C80008282DD009282DD0174A12F8014BA0420B
:1029D80004D101220A7003F11E00DDE701330A2B3E
:1029E800F3D1124A002312F8014BA04202D1104A37
:1029F800D05CD2E701330C2BF5D10E4A002312F834
:102A0800014BA04203D101220A700B4AF0E70133BF
:102A18000B2BF4D10020C0E72720BEE72820BCE715
:102A28002A20BAE72B20B8E72A9E0008589E0008FB
:102A38004C9E0008409E0008359E0008872837B540
:102A480003460C46154603D97833137003B030BDDE
:102A5800020606D5A0F18003012202FA03F32370CF
:102A6800F4E70DF10701FFF78FFF0028EED09DF87E
:102A780007302870002BE9D0237843F00203EEE7F3
:102A880008B5FEF73FF940220B48002105F03AFF50
:102A9800094A022302F8013C084A00231370084A35
:102AA8001370084A1370084A1370084A1370084ACA
:102AB8001370084A137008BDC5090020800900205A
:102AC800FD060020FE060020FF060020FA06002072
:102AD800FB060020FC0600200846022810B5114617
:102AE8001C460ED16AB1402B88BF402422460548B7
:102AF80088BF013105F064FF034B1C80034B0122A2
:102B08001A7010BD84090020820900208009002065
:102B1800022910B510461C4608D1412B28BF412474
:102B28000349224605F04CFF204610BD0024FBE770
:102B3800C4090020F0B5274E337895B0002B38D063
:102B480040273A46002104A805F0DCFE0023ADF832
:102B58000E30214B214D1C880DF10E03A4B20093B9
:102B6800224604AB29460220FEF7CEF850B314BB28
:102B78008DF8104000238DF811300023ADF8123085
:102B880001238DF814300523ADF80E3040220021C2
:102B9800134805F0B7FE124A1148022302F8013C17
:102BA80004A9BDF80E2005F00BFFBFF35B8F0023CF
:102BB800337015B0F0BD2B788DF81030012CD9D0BA
:102BC8006B78D8E7BDF80E30402B88BFADF80E7093
:102BD800DCE700BF8009002082090020840900206A
:102BE800C509002010B5FFF74FFEF8B1134C94F853
:102BF800693023B9BDE810400220FFF74BBEFFF74C
:102C080031FE98B1B4F86C30B3F57A7F10D2002B4E
:102C180008BF4FF47A734FF47A72B2FBF3F20849A3
:102C28000B780133DBB2934204DA0B70002010BD3D
:102C38000122F4E700230B70DCE700BFEC0400205E
:102C4800FA06002037B5144D2C7800F00F0024B197
:102C5800013C2C70114C247820438DF804006FF04F
:102C68007E008242B8BF02467F2AA8BF7F228342E5
:102C7800B8BF03468DF805207F2B4FF00402A8BF8C
:102C88007F238DF8071002200DEB02018DF8063026
:102C9800FFF70CFE03B030BDFB060020FC06002049
:102CA80038B50E4C2378BBB10320FFF7F3FD98B17C
:102CB8000B4D0C492B780A225343581CCA5C01441B
:102CC8000320FFF7F3FD38B12B78013303F03F03FE
:102CD8002B702378013B237038BD00BFFD06002010
:102CE800FE060020000700202DE9FF41494D95F818
:102CF8008D20013A032A03D8DFE802F018263F6C3A
:102D0800454C14F8010BE0B101A9FFF73DFE8DF821
:102D180008000028F5D09DF80400003818BF0120ED
:102D2800012202A99040FFF707FEEAE795F88F20F5
:102D3800012302F007029340384A1370384B1422DB
:102D48001A7004B0BDE8F081002295F890008DF863
:102D580004208DF8082001A902AAFFF76FFE9DF84C
:102D680004009DF8082050EA0203EAD0003A18BF90
:102D7800012202A9FFF7E0FDE3E795F89920254F26
:102D8800002415442646A046AF4206D156EA04035D
:102D9800D7D0224602A93046ECE797F891008DF883
:102DA800038001AA0DF103018DF80480FFF746FEA8
:102DB8009DF803301E439DF804304BB1052C07D80D
:102DC80004F11001621C0DEB010404F8083CD4B2B4
:102DD8000137D9E795F89A300C2BB2D802228DF832
:102DE8000420104A32F813308DF805301B0A8DF88C
:102DF80006300D4B01A81A889B78ADF8082002AC64
:102E080003218DF80A30FFF76DFD03212046FFF7F7
:102E180069FD96E7EC040020EA8C0008FC06002017
:102E2800FB060020669E0008C08C00087047000062
:102E380038B50F4B1A6805460AB9012038BD4FF45A
:102E48007A73B3FBF2F30B4A1068B0FBF3F000F0AF
:102E580089F804460028F0D10F2DEED802462946FD
:102E68004FF0FF3000F03EF8034B20461D60E5E7C9
:102E78000C000020740000201000002010B5032072
:102E880000F01EF80020FFF7D3FF044618B9FFF73B
:102E9800CDFF204610BD0124FBE70000034A04498A
:102EA800136809680B441360704700BF080A0020C4
:102EB8000C000020014B1868704700BF080A00206A
:102EC8000749CA6822F4E0620302120403F4E063CB
:102ED800120C134343F0BF6343F40033CB607047D5
:102EE80000ED00E0164B30B5DC68C4F30224C4F1F1
:102EF8000703251D042B28BF0423062D4FF0FF359B
:102F08008CBF033C002405FA03F321EA0303A54020
:102F180022EA0502A340002843EA0203ACBF00F1FD
:102F28006040084A4FEA0313B8BF00F00F00DBB255
:102F3800AABF00F56140135480F8003330BD00BFCC
:102F480000ED00E014ED00E0002807DB044A410929
:102F5800012300F01F00834042F82130704700BF72
:102F680000E100E00138B0F1807F0BD24FF0E023A0
:102F7800054A5861F02182F8231000200722986141
:102F88001A6170470120704700ED00E0002808DB57
:102F98004309044900F01F0001226033824041F8D0
:102FA8002320704700E100E0704708B5FFF7FCFFF9
:102FB80008BD704710B5044608B9012010BD437F0D
:102FC80003F0FF0213B90277FFF7F3FF02236377D9
:102FD8002379E3B92368134A5A619A6822F01802E0
:102FE8009A6062792368D2B94FF0FF321A619A6801
:102FF800616922F060020A439A609A68A16922F026
:1030080080020A439A60012363770020D6E7D4E957
:103018000212204600F008F80028E2D0CDE7226925
:10302800E4E700BFB71DC104CB0710B50BD51E23BD
:1030380021FA03F4E40708D5102A18D0102A09D871
:1030480062B1082A15D0012010E0013BF0D2102A05
:10305800F4D1F8E7182AF6D1062BF4D800684161B4
:10306800836823F0180313438360002010BD072BE7
:10307800F3E70F2BF1E710B5044640B102230371C3
:1030880003F084FD002020616071207110BD0120D3
:10309800FCE710B5012358B1046801F0100122685B
:1030A80003FA01F122EA010222600371002010BD37
:1030B8001846FCE70346002830D090F82520022A5D
:1030C80009D00422C2630120012283F825200022AE
:1030D80083F8242070470268116821F0010111600B
:1030E800116821F00E011160816C0A6822F4807267
:1030F8000A60D0E9100202F01F0101228A404260F2
:10310800D3E9132151605A6D32B1116821F48071ED
:103118001160D3E9162151600020D5E701207047DE
:1031280008B590F82530022B09D00423C363002288
:10313800012380F8253080F82420184608BD03684C
:103148001A6822F001021A601A6822F00E021A6048
:10315800826C136823F480731360D0E9101303F0B2
:103168001F02012393404B60D0E913325A60436D2C
:1031780033B11A6822F480721A60D0E916325A60A4
:10318800012380F82530002380F82430836B03B1B5
:1031980098470020D2E70000094A536943F4802386
:1031A80010B55361EFF3108272B60023CC58C450A7
:1031B8000433B3F5807FF9D182F3108810BD00BFC6
:1031C80000200240064B5A69002ABFBF054A9A6090
:1031D80002F188329A60BABF5869C00F0020704760
:1031E8000020024023016745044B5A6942F000421F
:1031F8005A615869C043C00F704700BF00200240A1
:1032080070B50646FFF756FE0F4C05462369DA03EC
:103218000BD423694CF2FA3213400DD00B494A689B
:103228001A434A600120236170BDFFF743FE401B2B
:10323800B042EBD90320F7E72369DB0744BF01233A
:1032480023610020F0E700BF0020024014000020A6
:103258002DE9F843254D99462B78012B04460F4656
:10326800904641D001234FF47A702B70FFF7C8FFC6
:10327800064630BB68601E48026812F4806217BFB9
:1032880003682A7723F4806303601CBF02232B772B
:10329800E4B9436943F001034361C7F80080BFF311
:1032A8006F8F0124C7F804904FF47A70FFF7A8FFD6
:1032B800064624B10E4A536923EA0403536100F019
:1032C8003DF800232B703046BDE8F883631E012BC0
:1032D80008D841463846FFF75FFFA31E5C425C41B1
:1032E800A404E1E70024DFE70226ECE7140000204D
:1032F80000200240064B10F0010F1EBF5A6942F031
:1033080004025A615A6942F480325A61704700BF18
:1033180000200240084B5A69C00022F4FC7200F4F5
:10332800FF60104358615A6942F002025A615A69B3
:1033380042F480325A617047002002401548037FEA
:10334800DAB203F0FD03012B10D1134B196821F4F5
:1033580000711960196841F400611960196821F455
:1033680000611960196841F400711960931E012BFE
:103378000CD8094B1A6842F480521A601A6822F471
:1033880080521A601A6842F480621A600023037738
:10339800704700BF14000020002002402DE9F843C8
:1033A800314D2B78012B064688465AD001274FF419
:1033B8007A702F70FFF724FF044610BB2B4B686010
:1033C8001A6812F4007F1A6820D0510506D51A68C9
:1033D80022F480621A6003232B7700E02F7733688A
:1033E800012B1DD17068FFF785FF4FF47A70FFF746
:1033F80007FF1E4A536923F0040304465361FFF78D
:103408009DFF00232B702046BDE8F883520505D5A3
:103418001A6822F480621A600223DDE72877DEE763
:103428004FF0FF33C8F80030B768DFF84090D6E9AE
:1034380002321344BB42E2D971683846FFF76AFF8B
:103448004FF47A70FFF7DCFED9F8143023F4FD73DB
:10345800C9F8143018B1C8F800700446CFE701372E
:10346800E5E70224CFE700BF140000200020024057
:10347800044A5169014208B502D0506103F056FC74
:1034880008BD00BF0004014010B590F89022012A41
:1034980004460AD0012280F890220173006803F0E4
:1034A80036F9002084F8900210BD0220FCE70000E5
:1034B8002DE9F84F0446006803F02FF910F4004591
:1034C80000F04684BE4D4FF028082068B0F844301C
:1034D8001A0469D5B0F844E01FFA8EF10EF00F0611
:1034E8001EF0080E60D1002E40F0B18011F01001DE
:1034F80025D103889BB22B4043F400430380227CF0
:10350800B0F8503000EBC20212FA83F3626AB3F8E3
:103518000234C3F309031A44E3626262204604F0EA
:103528005FFC237B002BD0D0A26A002ACDD1237B5D
:10353800216843F08003A1F84C302273C5E7068860
:10354800B3B216F4006644D094F85021B0F8503065
:1035580000EBC20212FA83F3B3F80634C3F309038B
:10356800082BC4F86C3121D0038823F4804323F05E
:1035780070031B041B0C48F2800283F4805313432E
:103588000380038823F4E04323F040031B041B0C4F
:1035980083F010031A430280038823F070031B058D
:1035A8001B0D43F080030380BDE8F88FB4F8562163
:1035B80004F5267103F049FA2268138823F0700392
:1035C8001B051B0D43F080031380204604F0F9FB14
:1035D8007BE71A047FF579AF038823F070031B0596
:1035E8001B0D43F08003038094F85021B0F850304D
:1035F80000EBC20212FA83F3B3F80634C3F30903EB
:10360800C4F86C3173B9038823F4804323F0700342
:103618001B041B0C83F4405343F4004343F0800322
:10362800038052E7D4F8641100293FF44EAFB4F890
:10363800562103F00AFAD4F86431D4F86C21134403
:10364800C4F864313146204604F0C1FB3DE730F848
:1036580026309FB21B0440F1EE8030F8263023F06C
:1036680070031B051B0D43F0800320F8263008FB70
:10367800064191F85C3191F85021ABB9B0F850305F
:10368800D20012FA83F30344B3F80694C9F3090984
:10369800B9F1000F00F0B980B1F856214B46D1F8C6
:1036A800641103F0D2F9B0E091F85331022B40F0E5
:1036B800898017F4804AD1F868314FEAC20B07F0C5
:1036C800400C3ED0B0F850901BFA89F98144B9F803
:1036D8000294C9F30909994512D9C1F868E130F88B
:1036E800223023F4804323F070031B041B0C83F463
:1036F800005343F4004343F0800320F8223005E0F0
:10370800A3EB0903C1F86831002BE8D0BCF1000F26
:103718000DD030F8223023F4E04323F070031B046B
:103728001B0C43F4004343F0C00320F82230B9F1E6
:10373800000F6AD0282101FB0641B1F858214B46F9
:10374800ADE7B0F850E01BFA8EFE8644BEF806944A
:10375800C9F30909994512D9C1F868A130F822308E
:1037680023F4804323F070031B041B0C83F40053E1
:1037780043F4004343F0800320F8223005E0A3EB34
:103788000903C1F86831002BE8D0BCF1000F0DD156
:1037980030F8223023F4E04323F070031B041B0CA1
:1037A80043F4004343F0C00320F82230B9F1000F7E
:1037B8002BD0282101FB0641B1F85A214B466EE770
:1037C8000F8FFFFF30F8223023F4E04323F070031B
:1037D8001B041B0C43F4004343F0C00320F82230C1
:1037E80091F8502130F8223013F4804FB0F850305F
:1037F8004FEAC20212FA83F303444FD0B3F802949B
:10380800C9F30909B9F1000F97D108FB06F163184C
:10381800D3F86C214A44C3F86C21D3F868211AB153
:10382800D3F86021914541D208FB0643204693F81E
:10383800501104F0CCFA39067FF547AE206830F80D
:1038480026309BB22B4043F4004308FB06FC20F8CB
:10385800263004EB0C03DA7C012A58D106FB0882D7
:103868000021A1501A7FC2B317F040075A7C3BD001
:1038780042BB197CB0F8502000F2024010FA82F0E6
:1038880030F83130C3F3090320F8313030F83130E3
:103898009BB243F4004320F831301EE0B3F806949D
:1038A800C9F30909B9F1000FAFD085E7D3F864214E
:1038B80020684A4401F5A871C3F86421214402F044
:1038C8003FFFB8E7012A08D1B0F850201B7C00F26E
:1038D800024010FA82F222F8331008FB0646317CC7
:1038E800204604F07DFAF0E52AB9B0F85020197C9A
:1038F80000F20640C2E7012AEFD1B0F850201B7C45
:1039080000F2064010FA82F222F83370E5E7197CDB
:103918009A6A17F4807E4FEAC1091BD1B0F850604B
:1039280019FA86F60644B6F80264C6F30906964202
:1039380002D3C3F828E0D3E7921B9A625A6A32444A
:103948005A62DA6A0CF110013244DA62214402F058
:10395800F7FEBAE517F0400AB0F850C007F4804700
:1039680000F00E8100F2024E19FA8CFCBFB23EF84C
:103978000CC0CCF3090C944534BFA2EB0C02002216
:103988009A62002A6ED1282303FB06435B7C002B36
:1039980057D1B0F850201EFA82F232F83130C3F312
:1039A800090322F8313032F831306FEA43436FEAC5
:1039B80053439BB222F83130B0F8502000F206434E
:1039C80013FA82F232F83130C3F3090322F83130A6
:1039D80032F831306FEA43436FEA53439BB222F81F
:1039E8003130282303FB0643DB7C022B0FD130F850
:1039F800213023F4E04323F040031B041B0C83F025
:103A0800200343F4004343F0800320F8213020468C
:103A180004F0E6F9002F3FF458AD282303FB0643D2
:103A28002268197C32F8213023F4E04323F0700334
:103A38001B041B0C43F4404343F0800322F821305D
:103A480043E5012BCDD1B0F850301EFA83F300F2D4
:103A5800064C23F83120B0F850301CFA83F323F8D1
:103A68003120BEE76FB130F8212022F4E04222F085
:103A780070021204120C42F4404242F0800220F814
:103A880021204FF0280909FB064999F83420012A1A
:103A98004ED1D9F8242002EB0C07C9F82470DA6A51
:103AA8006244DA62D9F83030D9F8202093421DD325
:103AB8009B1AC9F83030282303FB064393F811C03A
:103AC80093B2BCF1000F51D1B0F850C01EFA8CFC73
:103AD8003CF831E0CEF3090E2CF831E092B93CF80D
:103AE80031206FEA42426FEA524217E01BB989F867
:103AF80034306246DFE7002289F83420C9F83020E4
:103B08001A46D8E73E2A25D83CF831E002F00109E8
:103B18001FFA8EFE09EB52024EEA822292B22CF86C
:103B28003120282202FB0642128B394602F0F9FDA9
:103B3800282303FB06462268317C32F8213023F41F
:103B4800E04323F040031B041B0C83F0300343F4D1
:103B5800004371E74FEA521ED2063CF8312008BFF5
:103B68000EF1FF3E92B242EA8E22BAE7BCF1010F93
:103B780002BFB0F850201EFA82F222F83130D0E7A6
:103B880000F2064E19FA8CFCBFB23EF80CC0CCF31A
:103B9800090C944594BFA2EB0C0252469A62002A83
:103BA8005BD1282303FB06435B7C002B44D1B0F890
:103BB800502000F2024313FA82F232F83130C3F394
:103BC800090322F8313032F831306FEA43436FEAA3
:103BD80053439BB222F83130B0F850201EFA82F2DB
:103BE80032F83130C3F3090322F8313032F831307A
:103BF8006FEA43436FEA53439BB222F831302823DC
:103C080003FB0643DB7C022B0FD130F8213023F471
:103C1800E04323F040031B041B0C83F0200343F410
:103C2800004343F0800320F82130204604F0D8F800
:103C3800002F7FF44AACF0E6012BE0D1B0F8503009
:103C480000F2024C1CFA83F323F83120B0F850300C
:103C58001EFA83F323F83120D1E76FB930F8212019
:103C680022F4E04222F070021204120C42F44042A4
:103C780042F0800220F821204FF0280909FB06496C
:103C880099F83420012A7FF453AFD9F8242002EBA5
:103C98000C07C9F82470DA6A6244DA62D9F830305D
:103CA800D9F8202093421DD39B1AC9F83030282315
:103CB80003FB064393F811C093B2BCF1000F3DD14A
:103CC800B0F850C01EFA8CFC3CF831E0CEF3090E77
:103CD8002CF831E092B93CF831206FEA42426FEAA1
:103CE800524217E01BB989F834306246DFE70022F8
:103CF800C9F8302089F834201A46D8E73E2A11D866
:103D08003CF831E002F001091FFA8EFE09EB52027D
:103D18004EEA822292B22CF83120282202FB064277
:103D2800528B02E74FEA521ED2063CF8312008BFF8
:103D38000EF1FF3E92B242EA8E22CEE7BCF1010FAD
:103D480002BFB0F850201EFA82F222F83130E4E7C0
:103D5800430511D52268B2F8443023F480631B046C
:103D68001B0C2046A2F8443004F046F829462046A9
:103D7800BDE8F84FFFF788BB470409D52268B2F8B9
:103D8800443023F480431B041B0CA2F844300BE49A
:103D980010F4005105D02268B2F8443023F40053DF
:103DA800F1E7C60422D52268B2F8403023F00403B4
:103DB8001B041B0CA2F84030B2F8403023F0080373
:103DC8001B041B0CA2F8403094F8C832012B04D114
:103DD80084F8C812204600F031F9204604F02AF889
:103DE8002268B2F8443023F48053CCE705051BD58C
:103DF8002268B2F840309BB243F00803A2F8403082
:103E0800B2F8443023F400631B041B0CA2F84430BE
:103E1800B2F840309BB243F00403A2F84030204689
:103E280003F0F8FFFFF7C0BB01062AD52368B3F8F3
:103E3800442022F080021204120CA3F8442094F8C3
:103E4800C822002AEBD1B3F8402092B242F0040213
:103E5800A3F84020B3F8402092B242F008020121B2
:103E6800A3F8402084F8C812B3F85430C3F38D0384
:103E780003F03C03C4F8CC322046BDE8F84F00F00C
:103E8800DDB882050DD52268B2F8443023F40073FA
:103E98001B041B0CA2F84430204603F0A9FFFFF7CF
:103EA80083BBC3057FF580AB2268B2F8443023F4A6
:103EB800807368E770B50546282401F0070011F003
:103EC800800F00FB04F414BF04F1100104F5A8717D
:103ED80005EB040615BF491949190124002414BF2C
:103EE800747486F85141022BCB70C2F30A0204BFE6
:103EF80000230B7108700A6195F89032012B09D0E4
:103F08000123286885F8903202F0DAF9002085F854
:103F1800900270BD0220FCE770B501F0070128246B
:103F28004C430519002685F8501185F8516104F5B0
:103F3800A8710144C5E95923C5F86C61006802F00D
:103F4800FFFB304670BD70B501F0070128254D43D1
:103F58004419C4E909230122217484F83420002675
:103F6800627405F1100101442363E662006802F0FF
:103F7800E7FB304670BD10B5037901F007029342A4
:103F8800044624D311F0800F4FF0280316D0534372
:103F980003F11001034401440120587401238B707C
:103FA8000A7094F890229A4213D0206884F89032CC
:103FB80002F046FB002084F8900210BD4B4303F545
:103FC800A87103440144002083F85101E6E7012069
:103FD800F3E70220F1E738B5027901F00F039A42BE
:103FE800044627D301F00702282311F0800F02FBB3
:103FF80003F314BF03F1100103F5A871184415BFAA
:1040080009190919012300234FF0000514BF43744F
:1040180080F851318D700A7094F89032012B0BD0D2
:104028000123206884F8903202F02AFB84F8905229
:10403800284638BD0120FCE70220FAE77047000057
:10404800284B1A6818BB02F4C062B2F5806FD3F827
:10405800802022F48072C3F8802040D11A6822F4AC
:10406800C06242F400721A601F4A126832214A4341
:104078001E49B2FBF1F201325969490500D522B94E
:104088005B6958052BD503207047013AF4E7B0F572
:10409800007F1FD102F4C062B2F5806FD3F8802090
:1040A80042F48072C3F8802019D11A6822F4C062E1
:1040B80042F400721A600C4A126832214A430B49D2
:1040C800B2FBF1F2013259694905D9D5002AD7D096
:1040D800013AF8E722F4C06242F480621A600020D4
:1040E800704700BF007000407400002040420F007D
:1040F800024A936843F4804393607047007000401D
:104108002DE9F341044618B9012002B0BDE8F08159
:104118000368D90714D423689A0758D42368190761
:1041280000F1A18023685A0700F1C88023689A0625
:1041380000F12F81E369002B40F05C810020E4E767
:104148009F4DAB68EA6803F00C030C2B0AD102F010
:104158000303032B08D12B689B03DCD56368002B72
:10416800D9D1D1E7082BF5E76368B3F5803F10D1C3
:104178002B6843F480332B60FEF79CFE06462B68C1
:104188009F03C8D4FEF796FE801B6428F7D9032046
:10419800BBE7B3F5A02F04D12B6843F480232B6031
:1041A800E6E72A6822F480322A602A6822F480220C
:1041B8002A60002BE0D1FEF77DFE06462B689903A6
:1041C800A9D5FEF777FE801B6428F7D9DFE77C4D79
:1041D800AB68EA6803F00C030C2B17D102F0030359
:1041E800022B15D12B685A0502D5E368002B8BD01A
:1041F8006B68226923F0FE4343EA02636B60714BEC
:104208001868FEF715FE002888D07DE7042BE8E73C
:10421800E368BBB12B6843F480732B60FEF74AFE5A
:1042280006462B685B0507D56B68226923F0FE43B9
:1042380043EA02636B6071E7FEF73CFE801B0228CD
:10424800EFD9A4E72B6823F480732B60FEF732FEC6
:1042580006462B685F057FF561AFFEF72BFE801BD6
:104268000228F6D993E76369554D9BB1D5F8943088
:1042780043F00103C5F89430FEF71CFE0646D5F856
:1042880094309B073FF54EAFFEF714FE801B0228C3
:10429800F5D97CE7D5F8943023F00103C5F89430BC
:1042A800FEF708FE0646D5F894309F077FF53AAF2B
:1042B800FEF700FE801B0228F5D968E7404DAB6D7C
:1042C800D80027D4AB6D43F08053AB65AB6D03F0DA
:1042D80080530193019B01273B4E3368D9051BD5B9
:1042E800A368012B29D1D5F8903043F00103C5F814
:1042F8009030FEF7DFFD41F288380646D5F8903059
:104308009B0740D5002F3FF411AFAB6D23F08053CE
:10431800AB650BE70027DFE7336843F4807333604E
:10432800FEF7C8FD80463368DA05D9D4FEF7C2FD2A
:10433800A0EB08000228F6D929E7052B06D1D5F805
:10434800903043F00403C5F89030CCE7D5F89020BE
:1043580022F00102C5F89020D5F8902022F004023E
:10436800C5F89020002BC4D1FEF7A4FD41F288388F
:104378000646D5F890309907C4D5FEF79BFD801BFB
:104388004045F6D903E7FEF795FD801B4045B5D9B2
:10439800FDE6A3690A4DCBB1D5F8983043F0010387
:1043A800C5F89830FEF786FD0646D5F898309B0785
:1043B8003FF5C0AEFEF77EFD801B0228F5D9E6E684
:1043C800001002401000002000700040D5F898301E
:1043D80023F00103C5F89830FEF76CFD0646D5F8C2
:1043E80098309F077FF5A6AEFEF764FD801B022874
:1043F800F5D9CCE6454DAA6802F00C020C2A51D03A
:10440800022B2B6823F080732B603AD1FEF752FD04
:1044180006462B6899012ED4EA683D4B1340226A60
:104428001343A26A43EA0223E26A43EAC263626A66
:10443800013A43EA0213226B5208013A43EA425313
:10444800626B5208013A43EA4263EB602B6843F01F
:1044580080732B60EB6843F08073EB60FEF72AFDF6
:1044680004462B689A013FF569AEFEF723FD001B51
:104478000228F6D98BE6FEF71DFD801B0228C8D955
:1044880085E6FEF717FD04462B689B0104D4EA680D
:10449800204B1340EB6051E6FEF70CFD001B022891
:1044A800F2D974E6012B3FF42FAEEB68226A03F0D1
:1044B800030191427FF428AE616A03F0F0020139EA
:1044C800B2EB011F7FF420AEA16A03F4FE42B2EB07
:1044D800012F7FF419AEE16A03F07842B2EBC16FA5
:1044E8007FF412AE226B520803F4C001013AB1EB1B
:1044F800425F7FF409AE626B5208013A03F0C06371
:10450800B3EB426F14BF01200020FEE5001002400B
:104518000C809F01FCFFEEFE174B9A6802F00C021C
:10452800042A23D09A6802F00C02082A20D09A683C
:1045380002F00C020C2A1DD1D968DA68D868DB6849
:1045480001F00301C3F341630329C2F30312C0F36B
:10455800062003F101030CBF084909495B00013239
:10456800B1FBF2F25043B0FBF3F0704704487047D8
:1045780002487047002070470010024000366E0164
:104588000024F4002DE9F8430E46054610B9012031
:10459800BDE8F8836D4A136803F00F038B4245D3D7
:1045A800296811F001084CD12A68910740F1A780C9
:1045B800674B12F0040F1EBF996841F4E0619960DF
:1045C800120741BF9A6822F47C5242F4E0629A6072
:1045D8009A68A96822F0F0020A439A605B4C236843
:1045E80003F00F03B34200F293802A68584C12F08C
:1045F800040F40F0A380130706D5A3682A6923F4A3
:10460800605343EAC203A360FFF786FFA368514AD9
:10461800C3F30313D35C03F01F03D8404E4B186059
:104628004E4B1868BDE8F843FEF702BC136823F048
:104638000F030B431360136803F00F038B42A6D1DB
:10464800AEE76F68424C032F236849D19B019ED582
:10465800E368E26803F00303032BE3680CBF4048F8
:104668004048C2F30312C3F306230132B0FBF2F24F
:104678005343E268C2F3416201325200B3FBF2F3E2
:10468800394A93421AD84FF00008A36823F003036D
:104698003B43A360FEF70EFC41F288390746A36846
:1046A8006A6803F00C03B3EB820F3FF47DAFFEF7AB
:1046B80001FCC01B4845F2D9032069E7A36813F041
:1046C800F00F04D08807DED5AB68002BDBD1A368D8
:1046D80023F0F00343F08003A3604FF08008D4E791
:1046E800022F09D113F4003F3FF451AFFFF714FF35
:1046F8001D4B9842C7D9EAE713F4806FF4E7B8F185
:10470800800F01BF124A936823F0F003936065E7B6
:10471800236823F00F0333432360FEF7CBFB41F2FA
:1047280088380746236803F00F03B3423FF45DAFB0
:10473800FEF7C0FBC01B4045F4D9BDE7A368E96894
:1047480023F4E0630B43A36055E700BF0020024059
:1047580000100240D49E00087400002010000020C1
:1047680000366E010024F40000B4C404054B064A68
:104778009B68C3F30223D35C044A106803F01F0349
:10478800D840704700100240CC9E000874000020FA
:10479800054B064A9B68C3F3C223D35C044A1068DE
:1047A80003F01F03D840704700100240CC9E000859
:1047B800740000200F2303600B4B9A6802F0030279
:1047C80042609A6802F0F00282609A6802F4E0623D
:1047D800C2609B68DB0803F4E0630361034B1B685A
:1047E80003F00F030B6070470010024000200240E6
:1047F8002DE9F3410446006810F4002056D0984D86
:10480800AB6DD80044D4AB6D43F08053AB65AB6D52
:1048180003F080530193019B0126924F3B6843F4B8
:1048280080733B60FEF746FB80463B68D90531D56F
:10483800D5F8903013F4407320D0226C9A421DD0E2
:10484800D5F89020D5F8903043F48033C5F89030EF
:10485800D5F8903022F4407123F48033D207C5F89C
:104868009030C5F8901009D5FEF724FB41F288383E
:104878000746D5F890309B0740F1EB80D5F890308B
:10488800226C23F440731343C5F89030002008E0ED
:104898000026C2E7FEF70EFBA0EB08000228C4D9E9
:1048A80003201EB1AB6D23F08053AB652368DE0790
:1048B80008D56B496568D1F8882022F003022A439D
:1048C800C1F888209D0708D56549A568D1F88820D2
:1048D80022F00C022A43C1F88820590708D56049FC
:1048E800E568D1F8882022F030022A43C1F88820F0
:1048F8001A0708D55A492569D1F8882022F0C0023C
:104908002A43C1F888209F0608D555496569D1F81A
:10491800882022F440622A43C1F888205E0608D520
:104928004F49A569D1F8882022F440522A43C1F89A
:1049380088201D0608D54A49E569D1F8882022F45F
:1049480040422A43C1F88820D90508D54449256A38
:10495800D1F8882022F440322A43C1F888209A05E9
:1049680008D53F49656AD1F8882022F440222A43B5
:10497800C1F888205F050FD53949A56AD1F8882084
:1049880022F440122A43C1F88820B5F5801F02BFDF
:10499800CA6842F48012CA601E050FD53049E56A1C
:1049A800D1F8882022F440022A43C1F88820B5F5BE
:1049B800800F02BFCA6842F48012CA60DD040FD5B6
:1049C8002749256BD1F8882022F040722A43C1F884
:1049D8008820B5F1807F02BFCA6842F48012CA609D
:1049E80099040FD51E49656BD1F8882022F04062E2
:1049F8002A43C1F88820B5F1006F02BFCA6842F4A3
:104A08008012CA605A040FD51549A56BD1F88820C1
:104A180022F040622A43C1F88820B5F1006F02BF36
:104A2800CA6842F48012CA601B040FD50C4AE16BB5
:104A3800D2F8883023F040530B43B1F1805FC2F8BD
:104A4800883003D1D36843F48033D36002B0BDE823
:104A5800F081FEF72FFAC01B40457FF60AAF1FE72B
:104A68000010024000700040104B9A6B42F48072B4
:104A78009A639A6B22F480729A63D0E900321343E6
:104A880082681343C2681343026943EA0243084A2F
:104A980053601368416923F4FE4343EA012313601A
:104AA800136843F060031360704700BF00100240B2
:104AB80000200040704770B50446002867D0436A5C
:104AC800002B5DD14268B2F5827F00D0C36100231C
:104AD800A36294F85D3003F0FF0223B984F85C20E8
:104AE8002046FFF7E7FF2268E068022384F85D307C
:104AF8001368B0F5E06F23F0400313604FF0000334
:104B080042D91D46B0F5706F18BFA362A6686368E6
:104B1800A16906F4044603F482733343266906F058
:104B280002063343666906F00106334301F4007652
:104B38003343E66906F038063343266A06F08006F2
:104B48003343A66A06F4005633431360666B636A00
:104B580006F0080603F0100300F470603343090CF4
:104B6800034301F004010B432B435360D36923F43F
:104B78000063D36100200123206684F85D3070BD96
:104B88000023C0E90433A2E74FF48055BCE70120B5
:104B9800F5E7704710B5044680B10268022380F833
:104BA8005D30136823F040031360FFF7F2FF002025
:104BB800206684F85C0084F85D0010BD0120FCE7E5
:104BC80090F83D30012B27D10223144A80F83D305C
:104BD8000368934212D0B3F1804F0FD0A2F59432FC
:104BE80093420BD002F58062934207D002F59632C9
:104BF800934203D002F54062934207D19968084A6C
:104C08000A40062A06D0B2F5803F03D01A6842F05F
:104C180001021A600020704701207047002C0140F3
:104C28000700010090F83C20012A03464FF00200DB
:104C380009D01A6883F83D0051610020012283F8E9
:104C48003D2083F83C00704770477047036870B593
:104C5800DD681E69B20704460ED5A9070CD56FF0AA
:104C680002021A61012202779B699A0700F0A48068
:104C780001F024FB00232377730711D568070FD5AC
:104C880023686FF004021A61022222779B6913F4E9
:104C9800407F204600F0968001F010FB0023237728
:104CA800310710D52A070ED523686FF008021A615C
:104CB80004222277DB699B07204600F0898001F0F7
:104CC800FDFA00232377F10610D5EA060ED52368EE
:104CD8006FF010021A6108222277DB6913F4407F13
:104CE80020467BD001F0EAFA00232377F30708D5A2
:104CF800E80706D523686FF001021A61204601F023
:104D0800BAFA16F4025F08D0290606D523686FF4AC
:104D180002521A61204600F06CFAF20508D52B06FB
:104D280006D523686FF480721A61204600F062FA93
:104D3800700608D5690606D523686FF040021A6127
:104D48002046FFF782FFB20608D5AB0606D52368D2
:104D58006FF020021A61204600F04AFAF00208D5E6
:104D6800E90206D523686FF480121A61204600F024
:104D780042FAB20208D5AB0206D523686FF40012D6
:104D88001A61204600F038FA700208D5690206D583
:104D980023686FF480021A61204600F02EFA32026E
:104DA80022D52B0220D523686FF4000220461A6111
:104DB800BDE8704000F022BA01F07EFA2046FFF705
:104DC80043FF57E701F078FA2046FFF73DFF65E714
:104DD80001F072FA2046FFF737FF72E701F06CFA2C
:104DE8002046FFF731FF7FE770BD0000254A0368C2
:104DF80090420ED0B0F1804F0BD0A2F59432904281
:104E080007D002F58062904203D002F596329042B4
:104E180008D14A6823F070031343CA6823F4407327
:104E280013430AE0184A9042F7D002F58062904294
:104E3800F3D002F580629042EFD04A6923F08003F4
:104E480013438A68C2620A6882620E4A90420FD08F
:104E580002F5006290420BD002F54062904207D002
:104E680002F58062904203D002F58062904201D13F
:104E78000A690263026842F0040202600122426188
:104E880003607047002C01400040014010B5044603
:104E980050B390F83D3003F0FF021BB980F83C2076
:104EA80002F0E4FA0223206884F83D30211DFFF760
:104EB8009DFF012384F84830002084F83E3084F8B0
:104EC8003F3084F8403084F8413084F8423084F828
:104ED800433084F8443084F8453084F8463084F808
:104EE800473084F83D3010BD0120FCE7036A10B557
:104EF80001F01F0101248C4023EA04030362036AC2
:104F08008A401A43026210BD082908B518D005D88E
:104F180059B1042911D090F8433008E00C2912D077
:104F28001029F8D190F8423001E090F83E30013B6A
:104F380018BF012353B1012045E090F83F30F6E750
:104F480090F84030F3E790F84130F0E708294FF047
:104F580002033CD006D861B1042935D0022380F879
:104F6800433008E00C2935D01029F7D180F84230B9
:104F780001E080F83E3000680122FFF7B7FF214BBF
:104F880098420FD003F5006398420BD003F54063B5
:104F9800984207D003F58063984203D003F58063F5
:104FA80098421AD1436C43F400434364154B98422A
:104FB80003D003F5006398421ED18268124B134058
:104FC800062B1BD1002008BD80F83F30D3E780F8BE
:104FD8004030D0E780F84130CDE7B0F1804FECD0D9
:104FE8000A4B9842E9D003F580639842E5D00368FC
:104FF80043F001030360E5E7054BF6E7B3F5803FAF
:10500800F5D1DFE7002C0140070001000004004053
:1050180000400140FFF778BF082908B5034629D0AA
:1050280005D859B104291FD093F843002AE00C2968
:1050380026D01029F8D190F8420023E090F83E00DD
:1050480093F84420C0B20128D2B262D1012A4FD1CC
:1050580008294FF0020251D018D8F1B1042948D0DC
:10506800022283F8432050E090F83F0093F845204F
:10507800C0B2E8E790F8400093F84620C0B2E2E7F3
:1050880090F8410093F84720C0B2DCE70C293AD0E9
:105098001029E5D183F8422037E083F83E2083F8D1
:1050A800442018680122FFF721FF1B4B984212D0B9
:1050B800B0F1804F0FD0A3F5943398420BD003F58D
:1050C8008063984207D003F59633984203D003F5DE
:1050D8004063984207D18268104B1340062B06D0D4
:1050E800B3F5803F03D0036843F001030360002059
:1050F80008BD83F83F2083F84520D2E783F8402095
:1051080083F84620CDE783F84120022283F8472020
:10511800C7E70120ECE700BF002C014007000100B1
:10512800036A10B501F00F0104248C4023EA04033C
:105138000362036A8A401A43026210BD08B529B99E
:1051480090F84430012B1DD0012049E0042907D1F3
:1051580090F84530012BF7D1022380F8453014E050
:10516800082907D190F84630012BEDD1022380F8A9
:1051780046300AE090F84730012BE5D1022380F849
:10518800473002E0022380F8443000680422FFF729
:10519800C7FF436C43F400434364124B984212D058
:1051A800B0F1804F0FD0A3F5943398420BD003F59C
:1051B8008063984207D003F59633984203D003F5ED
:1051C8004063984207D18268074B1340062B06D0EC
:1051D800B3F5803F03D0036843F001030360002068
:1051E80008BD00BF002C014007000100FFF7A6BF63
:1051F80070477047704770477047704770470000A6
:1052080010B5026852E8003F23F4907342E8003179
:1052180002680029F5D10F4C02F1080353E8003F5A
:10522800234002F1080C4CE800310029F4D1C36E88
:10523800012B07D152E8003F23F0100342E8003168
:105248000029F7D12023C0F88C300023C3664367B8
:1052580010BD00BFFEFFFFEF08B5806A02F07CF9C1
:1052680008BD70470368D9691A682DE9F04140F60E
:105278000F0631429D68044610D18E0640F1978092
:1052880002F0200605F080573E4300F09080436FFF
:10529800002B00F08580BDE8F0411847A84EA948CA
:1052A8002E401040304300F08280CF0709D5D0054A
:1052B80007D501201862D4F8900040F00100C4F826
:1052C80090008F0709D5E80707D502201862D4F89F
:1052D800900040F00400C4F890004F0709D5E80793
:1052E80007D504201862D4F8900040F00200C4F8F2
:1052F80090000F070BD502F02000304307D008209C
:105308001862D4F8900040F00800C4F890000E0528
:105318000AD5500108D54FF400601862D4F89030CF
:1053280043F02003C4F89030D4F89030002B37D0E5
:105338008B0609D502F0200205F080552A4303D0D8
:10534800636F0BB1204698472668D4F89020B3685D
:1053580002F0280203F0400353EA0205204621D058
:10536800FFF74EFFB3685F0617D5226802F10803FE
:1053780053E8003F23F04003083242E80031002997
:10538800F3D1D4F8800040B16F4B8363FDF7C8FEBA
:1053980030B1D4F88000836B7DE7204602F0DCF85A
:1053A800BDE8F08102F0D8F8C4F89050F8E7E06E54
:1053B800012840F08D80CE0640F18A80D00640F169
:1053C800878010221A629968B4F85C20490651D582
:1053D800D4F880100868416889B2002942D0914207
:1053E80040D2A4F85E10026892062FD453E8002F2A
:1053F80022F4807243E800210029F7D103F1080262
:1054080052E8002F22F0010203F1080040E80021D1
:105418000029F3D103F1080252E8002F22F04002DC
:1054280003F1080040E800210029F3D12022C4F844
:105438008C20E16653E8002F22F0100243E8002197
:105448000029F7D1D4F88000FDF734FE0223236742
:10545800B4F85E30B4F85C10C91A89B22046FFF778
:1054680000FF9DE791429BD103689B0698D50223D4
:105478002367F3E7B4F85E10B4F85E0080B289B22F
:1054880000288DD0521A91B2002989D053E8002FF4
:1054980022F4907243E800200028F7D12B4D03F145
:1054A800080252E8002F2A4003F1080646E80020C7
:1054B8000028F4D12022C4F88C206067E06653E805
:1054C800002F22F0100243E800200028F7D1CEE791
:1054D800CF0209D56E0207D54FF4801220461A6212
:1054E800BDE8F04102F09CB808060BD502F0800038
:1054F80005F40005284305D0A36F002B3FF450AFF7
:105508002046C8E64F0611D556060FD553E8002F9A
:1055180022F0400243E800210029F7D12023C4F8F3
:105528008830A167204602F013F839E70D020FD53D
:1055380050000DD52046BDE8F04100F02CBB00BF5F
:10554800010000102001000461520008FEFFFFEF77
:10555800CB017FF525AF002ABFF622AF2046BDE874
:10556800F04100F017BB00BFD0F88C20222A08B504
:10557800036857D15B6AB0F86010826D0B401370F6
:10558800836D01338365B0F85E30013B9BB2A0F8B0
:105598005E30B0F85E309BB2002B42D1026852E810
:1055A800003F23F4907342E8003103680029F5D1E5
:1055B80003F1080252E8002F22F0010203F1080C5F
:1055C8004CE800210029F3D12022C0F88C20184A89
:1055D80041679342016705D1C26E012A0ED001F0DE
:1055E800B3FF1EE05A681102F6D553E8002F22F0E7
:1055F800806243E800210029F7D1EDE70022C26666
:1056080053E8002F22F0100243E800210029F7D1C7
:10561800DA69B0F85C10D20644BF10221A62FFF7AC
:1056280020FE08BD9A6942F008029A61F9E700BFB6
:1056380000800040D0F88C20222A08B5036854D195
:10564800596AB0F860201140826D22F8021B826509
:10565800B0F85E20013A92B2A0F85E20B0F85E2061
:1056680092B2002A40D153E8002F22F4907243E806
:1056780000210029F7D103F1080252E8002F22F097
:10568800010203F1080C4CE800210029F3D1202283
:10569800C0F88C20174A41679342016705D1C26E52
:1056A800012A0ED001F050FF1EE05A681102F6D50B
:1056B80053E8002F22F0806243E800210029F7D147
:1056C800EDE70022C26653E8002F22F0100243E8FB
:1056D80000210029F7D1DA69B0F85C10D20644BF7E
:1056E80010221A62FFF7BDFD08BD9A6942F0080250
:1056F8009A61F9E70080004003682DE9F047DD6909
:10570800D3F800809E68D0F88C20222A044640F006
:10571800B780B0F86830002B00F08D80B0F860706A
:105728004FF0000906F001064FF0040AAB0640F1FD
:1057380082802368A26D5B6A3B401370A36D0133BE
:10574800A365B4F85E30013B9BB2A4F85E302368D1
:10575800DD6968072AD0E9070AD518F4807F07D0E1
:1057680001221A62D4F8902042F00102C4F8902075
:10577800AA0708D53EB102221A62D4F8902042F056
:105788000402C4F89020680708D53EB1C3F820A0E9
:10579800D4F8903043F00203C4F89030D4F8903035
:1057A80023B1204601F0D8FEC4F89090B4F85E30DA
:1057B8009BB2002BBAD1226852E8003F23F48073D1
:1057C80042E8003123680029F5D1304803F1080286
:1057D80052E8002F024003F1080545E8002100299E
:1057E800F4D12022C4F88C20294A616793422167AA
:1057F8000AD05A68110207D553E8002F22F08062B8
:1058080043E800210029F7D1E26E012A34D10022B1
:10581800E26653E8002F22F0100243E80021002935
:10582800F7D1DA69B4F85C10D20644BF10221A62C4
:105838002046FFF716FDB4F85E309BB2D3B1B4F83A
:1058480068209A4216D9226802F1080353E8003FFB
:1058580023F08053083242E8003122680029F2D14F
:105868000C4B636752E8003F43F0200342E80031E5
:105878000029F7D1BDE8F087204601F065FEDAE798
:105888009A6942F008029A61F4E700BFFEFFFFEF51
:10589800008000407155000803682DE9F047DD6974
:1058A800D3F800809E68D0F88C20222A044640F065
:1058B800B480B0F86830002B00F08A80B0F86070CF
:1058C8004FF0000906F001064FF0040AAB067FD539
:1058D8002368A26D596A394022F8021BA265B4F800
:1058E8005E20013A92B2A4F85E20DD6968072AD0EA
:1058F800E9070AD518F4807F07D001221A62D4F884
:10590800902042F00102C4F89020AA0708D53EB1C1
:1059180002221A62D4F8902042F00402C4F89020BF
:10592800680708D53EB1C3F820A0D4F8903043F0FA
:105938000203C4F89030D4F8903023B1204601F027
:105948000BFEC4F89090B4F85E309BB2002BBDD12A
:10595800226852E8003F23F4807342E8003123684C
:105968000029F5D12F4803F1080252E8002F024020
:1059780003F1080545E800210029F4D12022C4F8E4
:105988008C20294A6167934221670AD05A6811021C
:1059980007D553E8002F22F0806243E80021002950
:1059A800F7D1E26E012A34D10022E26653E8002FD3
:1059B80022F0100243E800210029F7D1DA69B4F88F
:1059C8005C10D20644BF10221A622046FFF749FC39
:1059D800B4F85E309BB2D3B1B4F868209A4216D9B5
:1059E800226802F1080353E8003F23F0805308328D
:1059F80042E8003122680029F2D10C4B636752E873
:105A0800003F43F0200342E800310029F7D1BDE808
:105A1800F087204601F098FDDAE79A6942F008021B
:105A28009A61F4E7FEFFFFEF008000403D56000852
:105A3800D0F88820D0F88C001043704730B58165C5
:105A48008168A0F85C200023B1F5805FA0F85E2093
:105A5800436731D10369002B40F2FF1318BFFF23BE
:105A6800A0F860300023C0F890302223C0F88C30B2
:105A7800016801F1080353E8003F43F001030831CE
:105A880041E800340368002CF2D1456E846801694E
:105A9800B5F1005F35D1B0F86850954231D8B4F50A
:105AA800805F29D1C1B1264A426753E8002F42F4EA
:105AB800807243E8002121E029B90369002B0CBF5B
:105AC800FF237F23CCE7B1F1805FC9D10369002BA5
